{
  "contractName": "PermitAllowance",
  "abi": [
    {
      "inputs": [
        {
          "internalType": "contract IAllowanceTransfer",
          "name": "_permit",
          "type": "address"
        }
      ],
      "stateMutability": "nonpayable",
      "type": "constructor"
    },
    {
      "inputs": [],
      "name": "PERMIT2",
      "outputs": [
        {
          "internalType": "contract IAllowanceTransfer",
          "name": "",
          "type": "address"
        }
      ],
      "stateMutability": "view",
      "type": "function"
    },
    {
      "inputs": [
        {
          "internalType": "address",
          "name": "",
          "type": "address"
        },
        {
          "internalType": "address",
          "name": "",
          "type": "address"
        }
      ],
      "name": "tokenBalancesByUser",
      "outputs": [
        {
          "internalType": "uint256",
          "name": "",
          "type": "uint256"
        }
      ],
      "stateMutability": "view",
      "type": "function"
    },
    {
      "inputs": [
        {
          "internalType": "uint160",
          "name": "_amount",
          "type": "uint160"
        },
        {
          "internalType": "address",
          "name": "_token",
          "type": "address"
        }
      ],
      "name": "deposit",
      "outputs": [],
      "stateMutability": "nonpayable",
      "type": "function"
    },
    {
      "inputs": [
        {
          "internalType": "uint160",
          "name": "_amount",
          "type": "uint160"
        },
        {
          "internalType": "address",
          "name": "_token",
          "type": "address"
        },
        {
          "components": [
            {
              "components": [
                {
                  "internalType": "address",
                  "name": "token",
                  "type": "address"
                },
                {
                  "internalType": "uint160",
                  "name": "amount",
                  "type": "uint160"
                },
                {
                  "internalType": "uint48",
                  "name": "expiration",
                  "type": "uint48"
                },
                {
                  "internalType": "uint48",
                  "name": "nonce",
                  "type": "uint48"
                }
              ],
              "internalType": "struct IAllowanceTransfer.PermitDetails",
              "name": "details",
              "type": "tuple"
            },
            {
              "internalType": "address",
              "name": "spender",
              "type": "address"
            },
            {
              "internalType": "uint256",
              "name": "sigDeadline",
              "type": "uint256"
            }
          ],
          "internalType": "struct IAllowanceTransfer.PermitSingle",
          "name": "_permit",
          "type": "tuple"
        },
        {
          "internalType": "bytes",
          "name": "_signature",
          "type": "bytes"
        }
      ],
      "name": "deposit",
      "outputs": [],
      "stateMutability": "nonpayable",
      "type": "function"
    }
  ],
  "bytecode": "0x60a060405234801561001057600080fd5b50604051610bb7380380610bb7833981810160405281019061003291906100e1565b8073ffffffffffffffffffffffffffffffffffffffff1660808173ffffffffffffffffffffffffffffffffffffffff16815250505061010e565b600080fd5b600073ffffffffffffffffffffffffffffffffffffffff82169050919050565b600061009c82610071565b9050919050565b60006100ae82610091565b9050919050565b6100be816100a3565b81146100c957600080fd5b50565b6000815190506100db816100b5565b92915050565b6000602082840312156100f7576100f661006c565b5b6000610105848285016100cc565b91505092915050565b608051610a7a61013d6000396000818160d9015281816101ca0152818161030701526103980152610a7a6000f3fe608060405234801561001057600080fd5b506004361061004c5760003560e01c80636afdd850146100515780638d00e14e1461006f578063b84c0fee1461009f578063e2e62aa4146100bb575b600080fd5b6100596100d7565b60405161006691906104ad565b60405180910390f35b61008960048036038101906100849190610510565b6100fb565b6040516100969190610569565b60405180910390f35b6100b960048036038101906100b491906105b0565b610120565b005b6100d560048036038101906100d09190610679565b61025d565b005b7f000000000000000000000000000000000000000000000000000000000000000081565b6000602052816000526040600020602052806000526040600020600091509150505481565b8173ffffffffffffffffffffffffffffffffffffffff166000803373ffffffffffffffffffffffffffffffffffffffff1673ffffffffffffffffffffffffffffffffffffffff16815260200190815260200160002060008373ffffffffffffffffffffffffffffffffffffffff1673ffffffffffffffffffffffffffffffffffffffff16815260200190815260200160002060008282546101c19190610732565b925050819055507f000000000000000000000000000000000000000000000000000000000000000073ffffffffffffffffffffffffffffffffffffffff166336c78516333085856040518563ffffffff1660e01b81526004016102279493929190610784565b600060405180830381600087803b15801561024157600080fd5b505af1158015610255573d6000803e3d6000fd5b505050505050565b8473ffffffffffffffffffffffffffffffffffffffff166000803373ffffffffffffffffffffffffffffffffffffffff1673ffffffffffffffffffffffffffffffffffffffff16815260200190815260200160002060008673ffffffffffffffffffffffffffffffffffffffff1673ffffffffffffffffffffffffffffffffffffffff16815260200190815260200160002060008282546102fe9190610732565b925050819055507f000000000000000000000000000000000000000000000000000000000000000073ffffffffffffffffffffffffffffffffffffffff16632b67b570338585856040518563ffffffff1660e01b81526004016103649493929190610a03565b600060405180830381600087803b15801561037e57600080fd5b505af1158015610392573d6000803e3d6000fd5b505050507f000000000000000000000000000000000000000000000000000000000000000073ffffffffffffffffffffffffffffffffffffffff166336c78516333088886040518563ffffffff1660e01b81526004016103f59493929190610784565b600060405180830381600087803b15801561040f57600080fd5b505af1158015610423573d6000803e3d6000fd5b505050505050505050565b600073ffffffffffffffffffffffffffffffffffffffff82169050919050565b6000819050919050565b600061047361046e6104698461042e565b61044e565b61042e565b9050919050565b600061048582610458565b9050919050565b60006104978261047a565b9050919050565b6104a78161048c565b82525050565b60006020820190506104c2600083018461049e565b92915050565b600080fd5b600080fd5b60006104dd8261042e565b9050919050565b6104ed816104d2565b81146104f857600080fd5b50565b60008135905061050a816104e4565b92915050565b60008060408385031215610527576105266104c8565b5b6000610535858286016104fb565b9250506020610546858286016104fb565b9150509250929050565b6000819050919050565b61056381610550565b82525050565b600060208201905061057e600083018461055a565b92915050565b61058d8161042e565b811461059857600080fd5b50565b6000813590506105aa81610584565b92915050565b600080604083850312156105c7576105c66104c8565b5b60006105d58582860161059b565b92505060206105e6858286016104fb565b9150509250929050565b600080fd5b600060c0828403121561060b5761060a6105f0565b5b81905092915050565b600080fd5b600080fd5b600080fd5b60008083601f84011261063957610638610614565b5b8235905067ffffffffffffffff81111561065657610655610619565b5b6020830191508360018202830111156106725761067161061e565b5b9250929050565b60008060008060006101208688031215610696576106956104c8565b5b60006106a48882890161059b565b95505060206106b5888289016104fb565b94505060406106c6888289016105f5565b93505061010086013567ffffffffffffffff8111156106e8576106e76104cd565b5b6106f488828901610623565b92509250509295509295909350565b7f4e487b7100000000000000000000000000000000000000000000000000000000600052601160045260246000fd5b600061073d82610550565b915061074883610550565b92508282019050808211156107605761075f610703565b5b92915050565b61076f816104d2565b82525050565b61077e8161042e565b82525050565b60006080820190506107996000830187610766565b6107a66020830186610766565b6107b36040830185610775565b6107c06060830184610766565b95945050505050565b600082905092915050565b60006107e360208401846104fb565b905092915050565b6107f4816104d2565b82525050565b6000610809602084018461059b565b905092915050565b61081a8161042e565b82525050565b600065ffffffffffff82169050919050565b61083b81610820565b811461084657600080fd5b50565b60008135905061085881610832565b92915050565b600061086d6020840184610849565b905092915050565b61087e81610820565b82525050565b6080820161089560008301836107d4565b6108a260008501826107eb565b506108b060208301836107fa565b6108bd6020850182610811565b506108cb604083018361085e565b6108d86040850182610875565b506108e6606083018361085e565b6108f36060850182610875565b50505050565b61090281610550565b811461090d57600080fd5b50565b60008135905061091f816108f9565b92915050565b60006109346020840184610910565b905092915050565b61094581610550565b82525050565b60c0820161095c60008301836107c9565b6109696000850182610884565b5061097760808301836107d4565b61098460808501826107eb565b5061099260a0830183610925565b61099f60a085018261093c565b50505050565b600082825260208201905092915050565b82818337600083830152505050565b6000601f19601f8301169050919050565b60006109e283856109a5565b93506109ef8385846109b6565b6109f8836109c5565b840190509392505050565b600061010082019050610a196000830187610766565b610a26602083018661094b565b81810360e0830152610a398184866109d6565b90509594505050505056fea2646970667358221220beacf5e6f4be3796c8670441c473a1375e05acb3125a12cb289a593e0d103f9c64736f6c63430008120033",
  "immutableReferences": {
    "1235": [
      {
        "length": 32,
        "start": 217
      },
      {
        "length": 32,
        "start": 458
      },
      {
        "length": 32,
        "start": 775
      },
      {
        "length": 32,
        "start": 920
      }
    ]
  },
  "source": "// SPDX-License-Identifier: MIT\r\n\r\npragma solidity ^0.8.9;\r\n\r\nimport {IAllowanceTransfer} from \"./IAllowanceTransfer.sol\";\r\n\r\ncontract PermitAllowance {\r\nIAllowanceTransfer public immutable PERMIT2;\r\n\r\nconstructor(IAllowanceTransfer _permit) {\r\n    PERMIT2 = _permit;\r\n}\r\n\r\n    mapping (address => mapping (address => uint256)) public tokenBalancesByUser;\r\n\r\n    function deposit(\r\n        uint160 _amount,\r\n        address _token,\r\n        IAllowanceTransfer.PermitSingle calldata _permit,\r\n        bytes calldata _signature\r\n    ) external {\r\n        tokenBalancesByUser[msg.sender][_token] += _amount;\r\n\r\n        // 1. Set allowance using permit\r\n        PERMIT2.permit(\r\n            // Owner of the tokens and signer of the message.\r\n            msg.sender,\r\n            // The permit message.\r\n            _permit,\r\n            // The packed signature that was the result of signing\r\n            // the EIP712 hash of `_permit`.\r\n            _signature\r\n        );\r\n\r\n        // 2. Transfer the tokens\r\n        PERMIT2.transferFrom(\r\n            msg.sender,\r\n            address(this),\r\n            _amount,\r\n            _token\r\n        );\r\n    }\r\n\r\n    function deposit(\r\n        uint160 _amount,\r\n        address _token\r\n    ) external {\r\n        tokenBalancesByUser[msg.sender][_token] += _amount;\r\n\r\n        PERMIT2.transferFrom(\r\n            msg.sender,\r\n            address(this),\r\n            _amount,\r\n            _token\r\n        );\r\n    }\r\n\r\n}",
  "sourcePath": "D:\\Belajar\\Coding\\Blockchain\\Ethereum\\Token\\Test 2\\contracts\\PermitAllowance.sol",
  "compiler": {
    "name": "solc",
    "version": "0.8.18+commit.87f61d96.Emscripten.clang"
  },
  "schemaVersion": "3.4.13",
  "updatedAt": "2023-05-19T17:51:09.703Z",
  "devdoc": {
    "kind": "dev",
    "methods": {},
    "version": 1
  },
  "userdoc": {
    "kind": "user",
    "methods": {},
    "version": 1
  }
}