{
  "contractName": "PermitSignature",
  "abi": [
    {
      "inputs": [
        {
          "internalType": "contract ISignatureTransfer",
          "name": "_permit",
          "type": "address"
        }
      ],
      "stateMutability": "nonpayable",
      "type": "constructor"
    },
    {
      "inputs": [],
      "name": "PERMIT2",
      "outputs": [
        {
          "internalType": "contract ISignatureTransfer",
          "name": "",
          "type": "address"
        }
      ],
      "stateMutability": "view",
      "type": "function"
    },
    {
      "inputs": [
        {
          "internalType": "address",
          "name": "",
          "type": "address"
        },
        {
          "internalType": "address",
          "name": "",
          "type": "address"
        }
      ],
      "name": "tokenBalancesByUser",
      "outputs": [
        {
          "internalType": "uint256",
          "name": "",
          "type": "uint256"
        }
      ],
      "stateMutability": "view",
      "type": "function"
    },
    {
      "inputs": [
        {
          "internalType": "uint256",
          "name": "_amount",
          "type": "uint256"
        },
        {
          "internalType": "address",
          "name": "_token",
          "type": "address"
        },
        {
          "internalType": "address",
          "name": "_owner",
          "type": "address"
        },
        {
          "internalType": "address",
          "name": "_user",
          "type": "address"
        },
        {
          "components": [
            {
              "components": [
                {
                  "internalType": "address",
                  "name": "token",
                  "type": "address"
                },
                {
                  "internalType": "uint256",
                  "name": "amount",
                  "type": "uint256"
                }
              ],
              "internalType": "struct ISignatureTransfer.TokenPermissions",
              "name": "permitted",
              "type": "tuple"
            },
            {
              "internalType": "uint256",
              "name": "nonce",
              "type": "uint256"
            },
            {
              "internalType": "uint256",
              "name": "deadline",
              "type": "uint256"
            }
          ],
          "internalType": "struct ISignatureTransfer.PermitTransferFrom",
          "name": "_permit",
          "type": "tuple"
        },
        {
          "internalType": "bytes",
          "name": "_signature",
          "type": "bytes"
        }
      ],
      "name": "deposit",
      "outputs": [],
      "stateMutability": "nonpayable",
      "type": "function"
    }
  ],
  "bytecode": "0x60a060405234801561001057600080fd5b50604051610a8d380380610a8d833981810160405281019061003291906100e1565b8073ffffffffffffffffffffffffffffffffffffffff1660808173ffffffffffffffffffffffffffffffffffffffff16815250505061010e565b600080fd5b600073ffffffffffffffffffffffffffffffffffffffff82169050919050565b600061009c82610071565b9050919050565b60006100ae82610091565b9050919050565b6100be816100a3565b81146100c957600080fd5b50565b6000815190506100db816100b5565b92915050565b6000602082840312156100f7576100f661006c565b5b6000610105848285016100cc565b91505092915050565b60805161095e61012f6000396000818160b2015261018d015261095e6000f3fe608060405234801561001057600080fd5b50600436106100415760003560e01c80636afdd850146100465780638d00e14e14610064578063e30fcaad14610094575b600080fd5b61004e6100b0565b60405161005b9190610358565b60405180910390f35b61007e600480360381019061007991906103bb565b6100d4565b60405161008b9190610414565b60405180910390f35b6100ae60048036038101906100a991906104e4565b6100f9565b005b7f000000000000000000000000000000000000000000000000000000000000000081565b6000602052816000526040600020602052806000526040600020600091509150505481565b866000808673ffffffffffffffffffffffffffffffffffffffff1673ffffffffffffffffffffffffffffffffffffffff16815260200190815260200160002060008873ffffffffffffffffffffffffffffffffffffffff1673ffffffffffffffffffffffffffffffffffffffff168152602001908152602001600020600082825461018491906105c4565b925050819055507f000000000000000000000000000000000000000000000000000000000000000073ffffffffffffffffffffffffffffffffffffffff1663137c29fe8460405180604001604052803073ffffffffffffffffffffffffffffffffffffffff1681526020018b815250887ffeed45b61d43f452c933000e813412318e408c352e137cba26cfbe202b355c3a60405180602001604052808b73ffffffffffffffffffffffffffffffffffffffff1681525060405160200161024b92919061063c565b604051602081830303815290604052805190602001206040518060800160405280605381526020016108d66053913988886040518863ffffffff1660e01b815260040161029e9796959493929190610861565b600060405180830381600087803b1580156102b857600080fd5b505af11580156102cc573d6000803e3d6000fd5b5050505050505050505050565b600073ffffffffffffffffffffffffffffffffffffffff82169050919050565b6000819050919050565b600061031e610319610314846102d9565b6102f9565b6102d9565b9050919050565b600061033082610303565b9050919050565b600061034282610325565b9050919050565b61035281610337565b82525050565b600060208201905061036d6000830184610349565b92915050565b600080fd5b600080fd5b6000610388826102d9565b9050919050565b6103988161037d565b81146103a357600080fd5b50565b6000813590506103b58161038f565b92915050565b600080604083850312156103d2576103d1610373565b5b60006103e0858286016103a6565b92505060206103f1858286016103a6565b9150509250929050565b6000819050919050565b61040e816103fb565b82525050565b60006020820190506104296000830184610405565b92915050565b610438816103fb565b811461044357600080fd5b50565b6000813590506104558161042f565b92915050565b600080fd5b6000608082840312156104765761047561045b565b5b81905092915050565b600080fd5b600080fd5b600080fd5b60008083601f8401126104a4576104a361047f565b5b8235905067ffffffffffffffff8111156104c1576104c0610484565b5b6020830191508360018202830111156104dd576104dc610489565b5b9250929050565b6000806000806000806000610120888a03121561050457610503610373565b5b60006105128a828b01610446565b97505060206105238a828b016103a6565b96505060406105348a828b016103a6565b95505060606105458a828b016103a6565b94505060806105568a828b01610460565b93505061010088013567ffffffffffffffff81111561057857610577610378565b5b6105848a828b0161048e565b925092505092959891949750929550565b7f4e487b7100000000000000000000000000000000000000000000000000000000600052601160045260246000fd5b60006105cf826103fb565b91506105da836103fb565b92508282019050808211156105f2576105f1610595565b5b92915050565b6000819050919050565b61060b816105f8565b82525050565b61061a8161037d565b82525050565b6020820160008201516106366000850182610611565b50505050565b60006040820190506106516000830185610602565b61065e6020830184610620565b9392505050565b600082905092915050565b600061067f60208401846103a6565b905092915050565b60006106966020840184610446565b905092915050565b6106a7816103fb565b82525050565b604082016106be6000830183610670565b6106cb6000850182610611565b506106d96020830183610687565b6106e6602085018261069e565b50505050565b608082016106fd6000830183610665565b61070a60008501826106ad565b506107186040830183610687565b610725604085018261069e565b506107336060830183610687565b610740606085018261069e565b50505050565b60408201600082015161075c6000850182610611565b50602082015161076f602085018261069e565b50505050565b61077e8161037d565b82525050565b600081519050919050565b600082825260208201905092915050565b60005b838110156107be5780820151818401526020810190506107a3565b60008484015250505050565b6000601f19601f8301169050919050565b60006107e682610784565b6107f0818561078f565b93506108008185602086016107a0565b610809816107ca565b840191505092915050565b600082825260208201905092915050565b82818337600083830152505050565b60006108408385610814565b935061084d838584610825565b610856836107ca565b840190509392505050565b600061014082019050610877600083018a6106ec565b6108846080830189610746565b61089160c0830188610775565b61089e60e0830187610602565b8181036101008301526108b181866107db565b90508181036101208301526108c7818486610834565b90509897505050505050505056fe5769746e657373207769746e65737329546f6b656e5065726d697373696f6e73286164647265737320746f6b656e2c75696e7432353620616d6f756e74295769746e6573732861646472657373207573657229a2646970667358221220f0d2980cff848358e3d4cb65a2a6cc89c7624ba6be753f45daaa180899a55b3564736f6c63430008120033",
  "immutableReferences": {
    "1345": [
      {
        "length": 32,
        "start": 178
      },
      {
        "length": 32,
        "start": 397
      }
    ]
  },
  "source": "// SPDX-License-Identifier: MIT\r\n\r\npragma solidity ^0.8.9;\r\n\r\nimport {ISignatureTransfer} from \"./ISignatureTransfer.sol\";\r\n\r\ncontract PermitSignature {\r\n    string private constant WITNESS_TYPE_STRING = \"Witness witness)TokenPermissions(address token,uint256 amount)Witness(address user)\";\r\n    bytes32 private constant WITNESS_TYPEHASH = keccak256(\"Witness(address user)\");\r\n\r\n    struct Witness {\r\n    // Address of the user that signer is giving the tokens to\r\n    address user;\r\n}\r\n\r\nISignatureTransfer public immutable PERMIT2;\r\n\r\nconstructor(ISignatureTransfer _permit) {\r\n    PERMIT2 = _permit;\r\n}\r\n\r\n    mapping (address => mapping (address => uint256)) public tokenBalancesByUser;\r\n\r\n    function deposit(\r\n        uint256 _amount,\r\n        address _token,\r\n        address _owner,\r\n        address _user,\r\n        ISignatureTransfer.PermitTransferFrom calldata _permit,\r\n        bytes calldata _signature\r\n    ) external {\r\n        tokenBalancesByUser[_user][_token] += _amount;\r\n\r\n        PERMIT2.permitWitnessTransferFrom(\r\n            _permit,\r\n            ISignatureTransfer.SignatureTransferDetails({\r\n                to: address(this),\r\n                requestedAmount: _amount\r\n            }),\r\n            _owner,\r\n            // witness\r\n            keccak256(abi.encode(WITNESS_TYPEHASH,Witness(_user))),\r\n            // witnessTypeString,\r\n            WITNESS_TYPE_STRING,\r\n            _signature\r\n        );\r\n    }\r\n\r\n    \r\n\r\n}",
  "sourcePath": "D:\\Belajar\\Coding\\Blockchain\\Ethereum\\Token\\Test 2\\contracts\\PermitSignature.sol",
  "compiler": {
    "name": "solc",
    "version": "0.8.18+commit.87f61d96.Emscripten.clang"
  },
  "schemaVersion": "3.4.13",
  "updatedAt": "2023-05-19T17:51:09.711Z",
  "devdoc": {
    "kind": "dev",
    "methods": {},
    "version": 1
  },
  "userdoc": {
    "kind": "user",
    "methods": {},
    "version": 1
  }
}